S123F0007EF5477EF7877EFA867EF9B87EF9BC7EFA437EFA6B7EFA7F7EF9E27EF9C97EF931
S123F020C77EFA217EFA147EFA167EF9CB271003E80064000A0001BDFA862B6A68016900DB
S123F0408D3AAB01A701BDFA7F813D26EABDF9CBCEF02DB6FF08F6FF097FFF5A7CFF5AE0D9
S123F06001A20024F7EB01A90036B6FF5A8B2FBDF9E23208088CF03726DF2077680169003F
S123F080680169006801690039CEFF087FFF076F006F01BDFA7F812427AC814027468130C9
S123F0A02B0481392F022076840FB7FF5AA600E60158498DC7EB01A900FBFF5A8900A7005E
S123F0C0E701BDFA7F813D26D5BDF9CBCEFF08BDF9C7201F81302BCE81382ACA8D9E840736
S123F0E0AB01A701BDFA7F813D26E920DC7FFF607FFF548EFF8ACEFBC6BDFA14BDFA405D44
S123F1002624BDFA2E812426037EF316813B26037EF274814E2734812326037EF089CEFBE7
S123F120C2BDFA1620CD813B276EFEFF08812F26ED7EF1CBFEFF08270109FFFF5186FFB73B
S123F140FF60B7FF50B7FF547EF406CE000020EAB6FF08F6FF09BDF2AF2798CEFF1FA60082
S123F160AA01260BBEFF08AF006F206F2120B508088CFF2F26E820A6CEFF1FA600B1FF085F
S123F180260DA601B1FF0926066F006F01209508088CFF2F26E520DEBDFA7F814726037EA0
S123F1A0F3F1814E278E815026037EF3D1815527C78156279B815726BD207708BDFA25FF15
S123F1C0FF56CEFF56BDF9DCFEFF56BDF96A2B0E810D27B9810A27E309BDFA2120E1813BD4
S123F1E02694BDFA7F814F268DFEFF5608FFFF5AB6FF5AF6FF5BF0FF09B2FF082520261654
S123F200C181241250F7FF07BDF9CBCEFF07BDF9C9BDFA2120ACCEFB7DBDFA1620F3B6FFD2
S123F22008F6FF09F0FF5BB2FF5A26EA5825E75420D3B6FF082661B6FF09B7FF13FEFF0AE2
S123F240FFFF56A600B8FF13B4FF12260FBDFA21CEFF56BDF9C7FEFF56BDF9C9FEFF56BC93
S123F260FF0C27420820D97FFF607FFF5420377FFF5D2032BDFA7F814726037EF3E9814E91
S123F28026037EF14B815026037EF3C5815327DF815427D3815527037EF11ECEFF1F6F00C6
S123F2A0088CFF4F26F87EF0F3B6FF16F6FF17CEFF1FA1002605E10126013908088CFF2F4E
S123F2C026F086FF39BDFA9FBDF961082006BDFA9FBDF96A810D27CE08810A27037EFA216C
S123F2E07EFA25BDFAA5BDFA21CEFF1686508DD586588DD186418DD686428DD286438DCE6D
S123F30086538DC120A0BDF9CBCEFF12BDF96A2B1DBDF7872090BDFA7F16C15227C5C156ED
S123F320270FC14D27E0C154272CC15327137EF11EBDFA21CEFF1FC608BDF9C75A26FA2092
S123F340D3CEFBA4BDFA14CEFF5EBDF9612BDF86FFB7FF5D20BECEFB44BDFA14CEFF14BD66
S123F360F9612BCA86FFB7FF607FFF5020A67DFF4F262CCEFF1FFFFF56A600AA012714EE34
S123F38000A600C63FE700E10027037EF99CFEFF56A71008088CFF2F26DC86FFB7FF4F3920
S123F3A07DFF4F271CCEFF1FFFFF56A600AA012706A610EE00A700FEFF5608088CFF2F26EF
S123F3C0E77FFF4F397DFF602637BDF2A92732202B7DFF602605BDF2A927037EF11EBEFF34
S123F3E00834AF208EFF8A2018FEFF0009EE002003FEFF08FFFF167DFF602B05BDF36E2035
S123F4000586FFB7FF54C605BEFF1DCEFF16A60136A6003608085AC10326F3A60036085A8E
S123F42026F97DFF5D2711B6FF5FB7FCF8B6FF5EB7FCFA8634B7FCF97DFF54270A8634B741
S123F440FCFB863CB7FCFB3B863CB7FCF9C607CEFF1C32A700095A26F9BFFF1D8EFF8A8D08
S123F46035FEFF1609FFFF167DFF4F2714BDF3A0BDF2A9260CAE20271434AF208EFF8A2000
S123F48080CEFBC8BDFA147FFF607FFF548EFF8ABDFAA57EF0F3CEFF16A600E601A701E709
S123F4A000A602E603A703E70239863CB7FCF98634B7FCFB30A6008510261C7DFCFD2A17B1
S123F4C0C607A60636095A26F98A103136B6FFF8A705B6FFF9A706C607CEFF1C32A70009AA
S123F4E05A26F9BFFF1D8EFF8A8DABBDF3A0BDF61BB6FCF9F6FCF84D2B42B6FCFBF6FCFA5F
S123F5004D2B277DFF60272EBDFAA57DFF50270CFEFF51270F09FFFF517EF406FEFF16BC99
S123F520FF1426F57FFF507EF267CEFB93BDFA14BDFAA87EF0F37FFF547EF3FCCEFBAFBD99
S123F540FA14BDFAA82023010F4FCE0000FFFF0EFFFF10FFFFF6B7FF028603B7FCF4CE8383
S123F560FFFFFF008EFF8ABFFF1DCEF4AAFFFFFCCEF448FFFFFAFEFF008607094A26FCEE43
S123F58000FFFFF8CEFF1F6F00088CFF6326F8CEFCF88638A7018630A70386FFA700A702A5
S123F5A08634A703863CA701B6FCFD843FB7FCF48D70863A8D6E8D6A86398D68CEFBBBBDBC
S123F5C0FA168EFF8A8D54CEFB2FBDFA14B6FCF5CEFF03BDFA2CA700088CFF0726F5CEFADE
S123F5E0ED8D118CFB2F26F9FEFF0EBCFF1027D28D0220F7B6FF03A1002619B6FF04A1013F
S123F6002612B6FF05A102260BB6FF06A1032604EE046E0008080808080839CE30D40926CD
S123F620FD3986107EF9CFBDF9CBCEFFF6BDF9612BF5208ECEFBF9BDFA14CEFF8DBDFA7F6E
S123F64081202D0481612D028620A700088CFF9326EBBDF70C0D79FF627DFF022A078DC29A
S123F6608630BDF9E28612BDF9E2BDF702C683CEFBE9BDFA168DA4CEFF8DBDF6FD8CFF9331
S123F68026F85337308D7633FEFF0AFFFF5AB6FF0DB0FF5BF6FF0CF2FF5A260481182502F7
S123F6A086178B04B7FF588003B7FF07CEFBD4BDFA165FCEFF588D45CEFF5A8D408D3EFE4F
S123F6C0FF5A8D397AFF0726F9FFFF5A5337308D2C33FEFF5A09BCFF0C26B3CEFBDABDFA10
S123F6E0168D1FBDFA218614BDF9E27DFF022A08BDF6228639BDF9E27FFF62201DEB007ED8
S123F700FA07C6374FBDF9E25A26F939CEFB83BDFA14BDFA2C815926F3398D6BB6FF0481F6
S123F7205227037EF6348DE4FEFF0AFFFF08B6FF0984F0B7FF09BDFA21BDFA21CEFF08BDF0
S123F740F9C7FEFF08C610BDF9C95A26FABDF9CBC610FEFF08A600847F81202D0481612D2B
S123F76002862EBDF9E2085A26EBFFFF088C000027A8B6FF0CF6FF0DF0FF09B2FF08259A30
S123F7807DFF0926B420AFCEFB3ABDFA14CEFF0ABDF9612BF2CEFB44BDFA14CEFF0CBDF9F7
S123F7A0612BF2B6FF0CF6FF0DF0FF0BB2FF0A25D63986FFB7FF5A20247FFF5A20088601BB
S123F7C0B7FF5A7FFF61CEFB89BDFA14BDFA2CB7FF5881532707814326ECBDFA21BDF8A122
S123F7E0B6FF8C81302633B6FF8DCEFF8D084A26FC8604A700CEFF90BDFA14BDF9187DFF07
S123F8005A2ADACEFB4EBDFA14BDFA2C814327CD814C27A5815627A620E97DFF5A2BBEBD47
S123F820F918B6FF8C8131270D813926B0B6FF58814327A92068B6FF8D8003B7FF8DCEFFFE
S123F84090FFFF08FEFF8EFFFF56FEFF08A60008FFFF08FEFF567DFF5A2737A100272A36C7
S123F860FFFF567DFF61260A0D79FF61CEFB6FBDFA14CEFF56BDFA21BDF9C7FEFF56BDF9B9
S123F880C930BDF9C932FEFF56087AFF8D26B87EF7DDA700A10027F1CEFB5EBDFA147EF564
S123F8A0C27FFF8C7DFF022A0ABDF6228637BDF9CF200DB6FCFD845FB7FCF48611BDF9E21A
S123F8C00D79FF53BDFA7F810D26057DFF022BD9815326ECCEFF8D0D79FF53BDFA7F817F8D
S123F8E027F58130270881312704813926D2B7FF8C7FFF8B8D52B7FF078D4D7AFF0726F919
S123F9007CFF8BB6FCFD843FB7FCF4CEFBBCBDFA16B6FCF5B6FCF5397DFF8B271ECEFB696D
S123F920BDFA14CEFF8EBDF9C7BDFA2C8152260531317EF7DD814326E486FF390D79FF5327
S123F940BDFA84817F27F5398DF248484848168DEB1BA700BBFF8BB7FF8B8CFFD52701080E
S123F96039FFFF568D6186042007FFFF568D5A8602B7FF5CBDFA40FEFF56BDFA2E26365D9A
S123F980272DF1FF5C222EF1FF072229F6FF5CC1022713F6FF08E700E1002709CEFB5EBD0A
S123F9A0FA147EF0F308F6FF09E700E10026ED5FFEFF565D39C6FF3944444444840F8B304F
S123F9C0813923028B07398D3E8D3C8620201337F6FCF4C50227F9B7FCF533398D298D278A
S123F9E0862F8DEB37810D2614C6047DFF622603F6FFF75A2B0F364F8DD53220F6F6FFF66C
S123FA007DFF6227EE3339A6008DAD8DD5A6008DAB0820CE8D0BA600810427238DC40820E7
S123FA20F5860A8DBD860D8DB94F20B68D51815826037EF5C2815E2706810D2702810A3959
S123FA40CEFF087FFF076F006F018D382B19C604680169005A26F936AA01A701327CFF070E
S123FA60F6FF07C10526E3F6FF0739B6FCF44724FAB6FCF57DFF53260220AF7FFF53398D73
S123FA80EA847F398DF981302B1181392F0A81412B0981462E058007840F397DFAE5398D71
S123FAA089862D2085BDFA21CEFF1686508D1986588D1586418D0C86428D0886438D04860D
S123FAC05320058DDA7EF9C98DD57EF9C74FCE0000B7FF02FFFFF67EF5C28601CE000420EC
S123FAE0F0CE031786FF20E9CE072F20F74C4F4144F7B956455246F7BE53524348F7B250A0
S123FB00524E54F71A504E4348F71A4D414944F0ED5331302EFACD5333302EFADA53313293
S123FB2030FAE153323430FAE85445524DF627455842554720312E322004424547204144D3
S123FB4044522004454E4420414444522004434F4E542F4C4F41442F5645524620044E4F0B
S123FB60204348414E47450704434B534D2004414444522F4D454D2F544150450420494E21
S123FB80564C0445584543200453474C2F434F4E54200453544F502D4F4E2D414444524568
S123FBA05353200453544F502041444452200441424F5254454420415420041413000000D1
S123FBC0000407203F042A04424B5054204552524F5220040D0A005331040D0A0053393014
S123FBE0333030303046430D040D0A00533030423030303035383230044844523D5820043E
S9030000FC
